8=FIX.4.4|9=85|35=A|34=1|49=ORDERGENERATOR|52=20260618-01:15:20.284|56=ORDERACCUMULATOR|98=0|108=30|10=226|8=FIX.4.4|9=173|35=D|34=2|49=ORDERGENERATOR|52=20260618-01:15:39.423|56=ORDERACCUMULATOR|11=500a28aa-acad-4480-b229-ddc5c86c583b|38=99999|40=2|44=999|54=1|55=PETR4|60=20260618-01:15:39.422|10=021|8=FIX.4.4|9=73|35=0|34=3|49=ORDERGENERATOR|52=20260618-01:16:10.279|56=ORDERACCUMULATOR|10=187|8=FIX.4.4|9=173|35=D|34=4|49=ORDERGENERATOR|52=20260618-01:16:17.838|56=ORDERACCUMULATOR|11=87b1ff10-aadb-444d-9e0b-4cbd36c3ae35|38=99999|40=2|44=999|54=1|55=PETR4|60=20260618-01:16:17.838|10=135|8=FIX.4.4|9=73|35=0|34=5|49=ORDERGENERATOR|52=20260618-01:16:47.931|56=ORDERACCUMULATOR|10=194|8=FIX.4.4|9=167|35=D|34=6|49=ORDERGENERATOR|52=20260618-01:16:56.795|56=ORDERACCUMULATOR|11=860063ee-d95e-4a31-a73e-70a4fa38cf30|38=1|40=2|44=1|54=1|55=PETR4|60=20260618-01:16:56.795|10=122|8=FIX.4.4|9=85|35=A|34=7|49=ORDERGENERATOR|52=20260618-01:17:15.258|56=ORDERACCUMULATOR|98=0|108=30|10=239|8=FIX.4.4|9=167|35=D|34=8|49=ORDERGENERATOR|52=20260618-01:17:28.140|56=ORDERACCUMULATOR|11=81d3084c-b4ab-4d81-b975-5ef16d7e61d4|38=1|40=2|44=1|54=1|55=PETR4|60=20260618-01:17:28.139|10=111|8=FIX.4.4|9=73|35=0|34=9|49=ORDERGENERATOR|52=20260618-01:17:58.869|56=ORDERACCUMULATOR|10=211|8=FIX.4.4|9=168|35=D|34=10|49=ORDERGENERATOR|52=20260618-01:18:12.502|56=ORDERACCUMULATOR|11=7db0e7ca-25f5-483f-a2b7-65ec4b26bc38|38=1|40=2|44=1|54=1|55=VALE3|60=20260618-01:18:12.502|10=208|8=FIX.4.4|9=74|35=0|34=11|49=ORDERGENERATOR|52=20260618-01:18:43.116|56=ORDERACCUMULATOR|10=233|8=FIX.4.4|9=168|35=D|34=12|49=ORDERGENERATOR|52=20260618-01:18:46.507|56=ORDERACCUMULATOR|11=2ad85b45-29ba-4b0c-9f44-32d5b7f97f12|38=1|40=2|44=1|54=1|55=VALE3|60=20260618-01:18:46.507|10=140|8=FIX.4.4|9=83|35=1|34=13|49=ORDERGENERATOR|52=20260618-01:19:12.510|56=ORDERACCUMULATOR|112=TEST|10=249|8=FIX.4.4|9=74|35=0|34=14|49=ORDERGENERATOR|52=20260618-01:19:51.661|56=ORDERACCUMULATOR|10=241|8=FIX.4.4|9=86|35=A|34=15|49=ORDERGENERATOR|52=20260618-01:27:47.247|56=ORDERACCUMULATOR|98=0|108=30|10=035|8=FIX.4.4|9=168|35=D|34=16|49=ORDERGENERATOR|52=20260618-01:27:48.599|56=ORDERACCUMULATOR|11=43140630-14e5-4038-8011-d26bccab9890|38=1|40=2|44=1|54=1|55=VALE3|60=20260618-01:27:48.599|10=165|8=FIX.4.4|9=168|35=D|34=17|49=ORDERGENERATOR|52=20260618-01:28:05.088|56=ORDERACCUMULATOR|11=91c427ef-04f8-42d0-a87c-0d79c7a034b9|38=1|40=2|44=1|54=1|55=VALE3|60=20260618-01:28:05.088|10=099|8=FIX.4.4|9=86|35=A|34=18|49=ORDERGENERATOR|52=20260618-11:01:31.302|56=ORDERACCUMULATOR|98=0|108=30|10=016|8=FIX.4.4|9=74|35=0|34=19|49=ORDERGENERATOR|52=20260618-11:02:01.490|56=ORDERACCUMULATOR|10=234|8=FIX.4.4|9=74|35=0|34=20|49=ORDERGENERATOR|52=20260618-11:02:31.679|56=ORDERACCUMULATOR|10=238|8=FIX.4.4|9=74|35=0|34=21|49=ORDERGENERATOR|52=20260618-11:03:01.926|56=ORDERACCUMULATOR|10=232|8=FIX.4.4|9=74|35=0|34=22|49=ORDERGENERATOR|52=20260618-11:03:32.094|56=ORDERACCUMULATOR|10=233|8=FIX.4.4|9=74|35=0|34=23|49=ORDERGENERATOR|52=20260618-11:04:02.346|56=ORDERACCUMULATOR|10=232|8=FIX.4.4|9=74|35=0|34=24|49=ORDERGENERATOR|52=20260618-11:04:32.569|56=ORDERACCUMULATOR|10=243|8=FIX.4.4|9=74|35=0|34=25|49=ORDERGENERATOR|52=20260618-11:05:02.797|56=ORDERACCUMULATOR|10=245|8=FIX.4.4|9=74|35=0|34=26|49=ORDERGENERATOR|52=20260618-11:05:33.004|56=ORDERACCUMULATOR|10=231|8=FIX.4.4|9=168|35=D|34=27|49=ORDERGENERATOR|52=20260618-11:06:02.803|56=ORDERACCUMULATOR|11=0bf5de42-c5b4-4b82-b2b0-e224dcff29c9|38=1|40=2|44=1|54=1|55=VALE3|60=20260618-11:06:02.801|10=254|8=FIX.4.4|9=168|35=D|34=28|49=ORDERGENERATOR|52=20260618-11:06:32.480|56=ORDERACCUMULATOR|11=2be3800e-3a78-4769-a45f-f5f75bf50b82|38=1|40=2|44=1|54=1|55=VALE3|60=20260618-11:06:32.480|10=094|8=FIX.4.4|9=74|35=0|34=29|49=ORDERGENERATOR|52=20260618-11:07:03.392|56=ORDERACCUMULATOR|10=243|8=FIX.4.4|9=74|35=0|34=30|49=ORDERGENERATOR|52=20260618-11:07:33.579|56=ORDERACCUMULATOR|10=245|8=FIX.4.4|9=74|35=0|34=31|49=ORDERGENERATOR|52=20260618-11:08:03.802|56=ORDERACCUMULATOR|10=233|8=FIX.4.4|9=74|35=0|34=32|49=ORDERGENERATOR|52=20260618-11:08:33.997|56=ORDERACCUMULATOR|10=252|8=FIX.4.4|9=74|35=0|34=33|49=ORDERGENERATOR|52=20260618-11:09:04.252|56=ORDERACCUMULATOR|10=236|8=FIX.4.4|9=74|35=0|34=34|49=ORDERGENERATOR|52=20260618-11:09:34.503|56=ORDERACCUMULATOR|10=239|8=FIX.4.4|9=74|35=0|34=35|49=ORDERGENERATOR|52=20260618-11:10:04.783|56=ORDERACCUMULATOR|10=239|8=FIX.4.4|9=86|35=A|34=36|49=ORDERGENERATOR|52=20260618-12:35:32.199|56=ORDERACCUMULATOR|98=0|108=30|10=039|8=FIX.4.4|9=74|35=0|34=37|49=ORDERGENERATOR|52=20260618-12:36:02.510|56=ORDERACCUMULATOR|10=236|8=FIX.4.4|9=74|35=0|34=38|49=ORDERGENERATOR|52=20260618-12:36:32.818|56=ORDERACCUMULATOR|10=251|8=FIX.4.4|9=74|35=0|34=39|49=ORDERGENERATOR|52=20260618-12:37:03.102|56=ORDERACCUMULATOR|10=237|8=FIX.4.4|9=74|35=0|34=40|49=ORDERGENERATOR|52=20260618-12:37:33.358|56=ORDERACCUMULATOR|10=245|8=FIX.4.4|9=74|35=0|34=41|49=ORDERGENERATOR|52=20260618-12:38:03.633|56=ORDERACCUMULATOR|10=240|8=FIX.4.4|9=172|35=D|34=42|49=ORDERGENERATOR|52=20260618-12:38:25.647|56=ORDERACCUMULATOR|11=90f8ead5-33ea-4973-8e4c-9daba60592a1|38=100|40=2|44=100|54=1|55=PETR4|60=20260618-12:38:25.646|10=156|8=FIX.4.4|9=74|35=0|34=43|49=ORDERGENERATOR|52=20260618-12:38:56.632|56=ORDERACCUMULATOR|10=249|8=FIX.4.4|9=74|35=0|34=44|49=ORDERGENERATOR|52=20260618-12:39:26.915|56=ORDERACCUMULATOR|10=252|8=FIX.4.4|9=74|35=0|34=45|49=ORDERGENERATOR|52=20260618-12:39:57.184|56=ORDERACCUMULATOR|10=255|8=FIX.4.4|9=74|35=0|34=46|49=ORDERGENERATOR|52=20260618-12:40:27.395|56=ORDERACCUMULATOR|10=249|8=FIX.4.4|9=74|35=0|34=47|49=ORDERGENERATOR|52=20260618-12:40:57.690|56=ORDERACCUMULATOR|10=251|8=FIX.4.4|9=74|35=0|34=48|49=ORDERGENERATOR|52=20260618-12:41:27.982|56=ORDERACCUMULATOR|10=254|8=FIX.4.4|9=74|35=0|34=49|49=ORDERGENERATOR|52=20260618-12:41:58.234|56=ORDERACCUMULATOR|10=249|8=FIX.4.4|9=74|35=0|34=50|49=ORDERGENERATOR|52=20260618-12:42:28.444|56=ORDERACCUMULATOR|10=242|8=FIX.4.4|9=74|35=0|34=51|49=ORDERGENERATOR|52=20260618-12:42:58.675|56=ORDERACCUMULATOR|10=252|8=FIX.4.4|9=74|35=0|34=52|49=ORDERGENERATOR|52=20260618-12:43:28.879|56=ORDERACCUMULATOR|10=001|8=FIX.4.4|9=74|35=0|34=53|49=ORDERGENERATOR|52=20260618-12:43:59.126|56=ORDERACCUMULATOR|10=247|8=FIX.4.4|9=74|35=0|34=54|49=ORDERGENERATOR|52=20260618-12:44:29.325|56=ORDERACCUMULATOR|10=247|8=FIX.4.4|9=86|35=A|34=55|49=ORDERGENERATOR|52=20260618-12:45:04.718|56=ORDERACCUMULATOR|98=0|108=30|10=037|8=FIX.4.4|9=172|35=D|34=56|49=ORDERGENERATOR|52=20260618-12:45:22.203|56=ORDERACCUMULATOR|11=953fbb26-032a-4a9f-92f9-25c2bc8902a4|38=100|40=2|44=100|54=1|55=PETR4|60=20260618-12:45:22.201|10=024|8=FIX.4.4|9=172|35=D|34=57|49=ORDERGENERATOR|52=20260618-12:45:45.311|56=ORDERACCUMULATOR|11=bd9797ca-bd52-45c0-a032-508fc471bb3a|38=100|40=2|44=100|54=1|55=PETR4|60=20260618-12:45:45.311|10=120|8=FIX.4.4|9=176|35=D|34=58|49=ORDERGENERATOR|52=20260618-12:45:59.666|56=ORDERACCUMULATOR|11=1ab1a368-2288-40d5-85c7-555dbd617d16|38=1000000|40=2|44=100|54=2|55=VIIA4|60=20260618-12:45:59.666|10=158|8=FIX.4.4|9=178|35=D|34=59|49=ORDERGENERATOR|52=20260618-12:46:13.574|56=ORDERACCUMULATOR|11=361005f5-fd11-4832-9f5b-4378c649514b|38=100000000|40=2|44=100|54=2|55=VIIA4|60=20260618-12:46:13.574|10=143|8=FIX.4.4|9=74|35=0|34=60|49=ORDERGENERATOR|52=20260618-12:46:43.979|56=ORDERACCUMULATOR|10=001|8=FIX.4.4|9=74|35=0|34=61|49=ORDERGENERATOR|52=20260618-12:47:14.260|56=ORDERACCUMULATOR|10=240|8=FIX.4.4|9=74|35=0|34=62|49=ORDERGENERATOR|52=20260618-12:47:44.512|56=ORDERACCUMULATOR|10=244|8=FIX.4.4|9=74|35=0|34=63|49=ORDERGENERATOR|52=20260618-12:48:14.771|56=ORDERACCUMULATOR|10=250|8=FIX.4.4|9=74|35=0|34=64|49=ORDERGENERATOR|52=20260618-12:48:45.010|56=ORDERACCUMULATOR|10=241|8=FIX.4.4|9=74|35=0|34=65|49=ORDERGENERATOR|52=20260618-12:49:15.256|56=ORDERACCUMULATOR|10=252|8=FIX.4.4|9=178|35=D|34=66|49=ORDERGENERATOR|52=20260618-12:49:42.900|56=ORDERACCUMULATOR|11=377ee9f0-e777-4394-8773-31f67dedfe56|38=100000000|40=2|44=100|54=2|55=VIIA4|60=20260618-12:49:42.900|10=063|8=FIX.4.4|9=86|35=A|34=67|49=ORDERGENERATOR|52=20260618-13:01:57.182|56=ORDERACCUMULATOR|98=0|108=30|10=036|8=FIX.4.4|9=168|35=D|34=68|49=ORDERGENERATOR|52=20260618-13:02:21.404|56=ORDERACCUMULATOR|11=b5c677cb-54e4-4028-8a42-74cf27ac7dd4|38=1|40=2|44=1|54=1|55=PETR4|60=20260618-13:02:21.403|10=143|8=FIX.4.4|9=74|35=0|34=69|49=ORDERGENERATOR|52=20260618-13:02:52.066|56=ORDERACCUMULATOR|10=246|8=FIX.4.4|9=168|35=D|34=70|49=ORDERGENERATOR|52=20260618-13:02:53.144|56=ORDERACCUMULATOR|11=cb62ac03-6b7b-49f8-b85b-ba3e56df1422|38=1|40=2|44=1|54=1|55=PETR4|60=20260618-13:02:53.143|10=232|8=FIX.4.4|9=74|35=0|34=71|49=ORDERGENERATOR|52=20260618-13:03:23.491|56=ORDERACCUMULATOR|10=240|8=FIX.4.4|9=74|35=0|34=72|49=ORDERGENERATOR|52=20260618-13:03:53.739|56=ORDERACCUMULATOR|10=249|8=FIX.4.4|9=74|35=0|34=73|49=ORDERGENERATOR|52=20260618-13:04:24.006|56=ORDERACCUMULATOR|10=236|8=FIX.4.4|9=74|35=0|34=74|49=ORDERGENERATOR|52=20260618-13:04:54.321|56=ORDERACCUMULATOR|10=240|8=FIX.4.4|9=168|35=D|34=75|49=ORDERGENERATOR|52=20260618-13:04:58.968|56=ORDERACCUMULATOR|11=567df069-7ca7-4474-ad84-187756ab71d2|38=1|40=2|44=1|54=1|55=PETR4|60=20260618-13:04:58.968|10=066|8=FIX.4.4|9=83|35=1|34=76|49=ORDERGENERATOR|52=20260618-13:05:34.585|56=ORDERACCUMULATOR|112=TEST|10=016|8=FIX.4.4|9=74|35=0|34=77|49=ORDERGENERATOR|52=20260618-13:06:05.274|56=ORDERACCUMULATOR|10=248|8=FIX.4.4|9=168|35=D|34=78|49=ORDERGENERATOR|52=20260618-13:06:09.887|56=ORDERACCUMULATOR|11=38fcf948-c017-45df-bfad-2ac40176748a|38=1|40=2|44=1|54=1|55=PETR4|60=20260618-13:06:09.887|10=243|8=FIX.4.4|9=74|35=0|34=79|49=ORDERGENERATOR|52=20260618-13:06:40.190|56=ORDERACCUMULATOR|10=246|8=FIX.4.4|9=74|35=0|34=80|49=ORDERGENERATOR|52=20260618-13:07:10.394|56=ORDERACCUMULATOR|10=242|8=FIX.4.4|9=74|35=0|34=81|49=ORDERGENERATOR|52=20260618-13:07:40.617|56=ORDERACCUMULATOR|10=244|8=FIX.4.4|9=74|35=0|34=82|49=ORDERGENERATOR|52=20260618-13:08:10.904|56=ORDERACCUMULATOR|10=242|8=FIX.4.4|9=74|35=0|34=83|49=ORDERGENERATOR|52=20260618-13:08:41.176|56=ORDERACCUMULATOR|10=248|8=FIX.4.4|9=74|35=0|34=84|49=ORDERGENERATOR|52=20260618-13:09:11.443|56=ORDERACCUMULATOR|10=244|8=FIX.4.4|9=74|35=0|34=85|49=ORDERGENERATOR|52=20260618-13:09:41.696|56=ORDERACCUMULATOR|10=002|8=FIX.4.4|9=168|35=D|34=86|49=ORDERGENERATOR|52=20260618-13:09:58.047|56=ORDERACCUMULATOR|11=61fd49e4-094f-491b-98c5-6824c8eacd61|38=1|40=2|44=1|54=1|55=PETR4|60=20260618-13:09:58.047|10=152|8=FIX.4.4|9=74|35=0|34=87|49=ORDERGENERATOR|52=20260618-13:10:28.699|56=ORDERACCUMULATOR|10=004|8=FIX.4.4|9=168|35=D|34=88|49=ORDERGENERATOR|52=20260618-13:10:43.831|56=ORDERACCUMULATOR|11=6a223c3d-651f-4884-badc-e149fd3afacd|38=1|40=2|44=1|54=1|55=PETR4|60=20260618-13:10:43.831|10=085|8=FIX.4.4|9=74|35=0|34=89|49=ORDERGENERATOR|52=20260618-13:11:14.676|56=ORDERACCUMULATOR|10=253|8=FIX.4.4|9=168|35=D|34=90|49=ORDERGENERATOR|52=20260618-13:11:33.404|56=ORDERACCUMULATOR|11=04954b22-50d0-45f1-82ff-1dc65bd3260a|38=1|40=2|44=1|54=1|55=PETR4|60=20260618-13:11:33.403|10=026|8=FIX.4.4|9=74|35=0|34=91|49=ORDERGENERATOR|52=20260618-13:12:04.030|56=ORDERACCUMULATOR|10=230|8=FIX.4.4|9=74|35=0|34=92|49=ORDERGENERATOR|52=20260618-13:12:34.349|56=ORDERACCUMULATOR|10=247|8=FIX.4.4|9=168|35=D|34=93|49=ORDERGENERATOR|52=20260618-13:12:47.413|56=ORDERACCUMULATOR|11=be3a391b-cfe5-4ab8-abc4-e65cda2fce8b|38=1|40=2|44=1|54=1|55=PETR4|60=20260618-13:12:47.413|10=018|8=FIX.4.4|9=74|35=0|34=94|49=ORDERGENERATOR|52=20260618-13:13:17.513|56=ORDERACCUMULATOR|10=244|8=FIX.4.4|9=74|35=0|34=95|49=ORDERGENERATOR|52=20260618-13:13:47.779|56=ORDERACCUMULATOR|10=006|8=FIX.4.4|9=74|35=0|34=96|49=ORDERGENERATOR|52=20260618-13:14:18.047|56=ORDERACCUMULATOR|10=250|8=FIX.4.4|9=74|35=0|34=97|49=ORDERGENERATOR|52=20260618-13:14:48.279|56=ORDERACCUMULATOR|10=005|8=FIX.4.4|9=74|35=0|34=98|49=ORDERGENERATOR|52=20260618-13:15:18.476|56=ORDERACCUMULATOR|10=003|8=FIX.4.4|9=74|35=0|34=99|49=ORDERGENERATOR|52=20260618-13:15:48.732|56=ORDERACCUMULATOR|10=002|8=FIX.4.4|9=75|35=0|34=100|49=ORDERGENERATOR|52=20260618-13:16:18.986|56=ORDERACCUMULATOR|10=043|8=FIX.4.4|9=169|35=D|34=101|49=ORDERGENERATOR|52=20260618-13:16:40.798|56=ORDERACCUMULATOR|11=109824ec-ab7d-4d50-abe3-9037ac4db57b|38=1|40=2|44=1|54=1|55=PETR4|60=20260618-13:16:40.798|10=048|8=FIX.4.4|9=87|35=A|34=102|49=ORDERGENERATOR|52=20260618-13:17:58.820|56=ORDERACCUMULATOR|98=0|108=30|10=082|8=FIX.4.4|9=85|35=2|34=103|49=ORDERGENERATOR|52=20260618-13:17:58.823|56=ORDERACCUMULATOR|7=98|16=0|10=231|8=FIX.4.4|9=176|35=D|34=104|49=ORDERGENERATOR|52=20260618-13:18:10.990|56=ORDERACCUMULATOR|11=a1d8626c-ddf8-47cf-bb09-9332dbc99ef0|38=100000|40=2|44=100|54=1|55=PETR4|60=20260618-13:18:10.990|10=187|8=FIX.4.4|9=75|35=0|34=105|49=ORDERGENERATOR|52=20260618-13:18:41.873|56=ORDERACCUMULATOR|10=041|8=FIX.4.4|9=75|35=0|34=106|49=ORDERGENERATOR|52=20260618-13:19:12.086|56=ORDERACCUMULATOR|10=037|8=FIX.4.4|9=176|35=D|34=107|49=ORDERGENERATOR|52=20260618-13:19:33.610|56=ORDERACCUMULATOR|11=46318965-0a15-4eee-b8eb-8ac9e8bc8d0c|38=100000|40=2|44=100|54=1|55=PETR4|60=20260618-13:19:33.610|10=130|8=FIX.4.4|9=87|35=A|34=108|49=ORDERGENERATOR|52=20260618-13:26:27.345|56=ORDERACCUMULATOR|98=0|108=30|10=086|8=FIX.4.4|9=176|35=D|34=109|49=ORDERGENERATOR|52=20260618-13:26:30.925|56=ORDERACCUMULATOR|11=a2253af7-7503-4571-abfe-318dd2cb9e34|38=100000|40=2|44=100|54=1|55=PETR4|60=20260618-13:26:30.924|10=025|8=FIX.4.4|9=87|35=A|34=110|49=ORDERGENERATOR|52=20260618-13:27:02.757|56=ORDERACCUMULATOR|98=0|108=30|10=080|8=FIX.4.4|9=176|35=D|34=111|49=ORDERGENERATOR|52=20260618-13:27:17.745|56=ORDERACCUMULATOR|11=f86da094-35cf-4a45-bc58-368c0bac0faf|38=10000000|40=2|44=1|54=1|55=PETR4|60=20260618-13:27:17.743|10=178|8=FIX.4.4|9=84|35=1|34=112|49=ORDERGENERATOR|52=20260618-13:27:41.123|56=ORDERACCUMULATOR|112=TEST|10=046|8=FIX.4.4|9=75|35=0|34=113|49=ORDERGENERATOR|52=20260618-13:28:11.159|56=ORDERACCUMULATOR|10=035|8=FIX.4.4|9=75|35=0|34=114|49=ORDERGENERATOR|52=20260618-13:28:41.339|56=ORDERACCUMULATOR|10=039|8=FIX.4.4|9=75|35=0|34=115|49=ORDERGENERATOR|52=20260618-13:29:11.499|56=ORDERACCUMULATOR|10=045|8=FIX.4.4|9=75|35=0|34=116|49=ORDERGENERATOR|52=20260618-13:29:41.716|56=ORDERACCUMULATOR|10=041|8=FIX.4.4|9=75|35=0|34=117|49=ORDERGENERATOR|52=20260618-13:30:11.951|56=ORDERACCUMULATOR|10=032|8=FIX.4.4|9=75|35=0|34=118|49=ORDERGENERATOR|52=20260618-13:30:42.174|56=ORDERACCUMULATOR|10=034|8=FIX.4.4|9=75|35=0|34=119|49=ORDERGENERATOR|52=20260618-13:31:12.452|56=ORDERACCUMULATOR|10=032|8=FIX.4.4|9=176|35=D|34=120|49=ORDERGENERATOR|52=20260618-13:31:21.061|56=ORDERACCUMULATOR|11=0156879d-b68d-4ed1-b2cb-1bc708b95a5c|38=10000000|40=2|44=1|54=1|55=PETR4|60=20260618-13:31:21.061|10=049|8=FIX.4.4|9=84|35=1|34=121|49=ORDERGENERATOR|52=20260618-13:32:19.241|56=ORDERACCUMULATOR|112=TEST|10=048|8=FIX.4.4|9=84|35=0|34=122|49=ORDERGENERATOR|52=20260618-13:32:25.403|56=ORDERACCUMULATOR|112=TEST|10=045|8=FIX.4.4|9=176|35=D|34=123|49=ORDERGENERATOR|52=20260618-13:32:33.704|56=ORDERACCUMULATOR|11=1f8e4742-1dab-4cad-a58e-76feecb317b9|38=10000000|40=2|44=1|54=1|55=PETR4|60=20260618-13:32:33.704|10=215|8=FIX.4.4|9=75|35=0|34=124|49=ORDERGENERATOR|52=20260618-13:33:04.422|56=ORDERACCUMULATOR|10=028|8=FIX.4.4|9=87|35=A|34=125|49=ORDERGENERATOR|52=20260618-13:33:44.154|56=ORDERACCUMULATOR|98=0|108=30|10=080|8=FIX.4.4|9=176|35=D|34=126|49=ORDERGENERATOR|52=20260618-13:33:44.609|56=ORDERACCUMULATOR|11=abf5c870-919c-47f7-9c50-d7d129d380ff|38=10000000|40=2|44=1|54=1|55=PETR4|60=20260618-13:33:44.608|10=056|8=FIX.4.4|9=75|35=0|34=127|49=ORDERGENERATOR|52=20260618-13:34:15.431|56=ORDERACCUMULATOR|10=034|8=FIX.4.4|9=75|35=0|34=128|49=ORDERGENERATOR|52=20260618-13:34:45.635|56=ORDERACCUMULATOR|10=044|8=FIX.4.4|9=75|35=0|34=129|49=ORDERGENERATOR|52=20260618-13:35:15.905|56=ORDERACCUMULATOR|10=043|8=FIX.4.4|9=75|35=0|34=130|49=ORDERGENERATOR|52=20260618-13:35:46.122|56=ORDERACCUMULATOR|10=030|8=FIX.4.4|9=75|35=0|34=131|49=ORDERGENERATOR|52=20260618-13:36:16.358|56=ORDERACCUMULATOR|10=040|8=FIX.4.4|9=75|35=0|34=132|49=ORDERGENERATOR|52=20260618-13:36:46.554|56=ORDERACCUMULATOR|10=042|8=FIX.4.4|9=87|35=A|34=133|49=ORDERGENERATOR|52=20260618-15:01:21.367|56=ORDERACCUMULATOR|98=0|108=30|10=077|8=FIX.4.4|9=178|35=D|34=134|49=ORDERGENERATOR|52=20260618-15:01:29.569|56=ORDERACCUMULATOR|11=875dcb1b-0e70-4e5e-b6ad-a8a3f4fd2ada|38=1000000|40=2|44=1000|54=1|55=PETR4|60=20260618-15:01:29.568|10=163|8=FIX.4.4|9=75|35=0|34=135|49=ORDERGENERATOR|52=20260618-15:01:59.924|56=ORDERACCUMULATOR|10=044|