8=FIX.4.4|9=85|35=A|34=1|49=ORDERGENERATOR|52=20260618-01:15:20.284|56=ORDERACCUMULATOR|98=0|108=30|10=226|8=FIX.4.4|9=173|35=D|34=2|49=ORDERGENERATOR|52=20260618-01:15:39.423|56=ORDERACCUMULATOR|11=500a28aa-acad-4480-b229-ddc5c86c583b|38=99999|40=2|44=999|54=1|55=PETR4|60=20260618-01:15:39.422|10=021|8=FIX.4.4|9=73|35=0|34=3|49=ORDERGENERATOR|52=20260618-01:16:10.279|56=ORDERACCUMULATOR|10=187|8=FIX.4.4|9=173|35=D|34=4|49=ORDERGENERATOR|52=20260618-01:16:17.838|56=ORDERACCUMULATOR|11=87b1ff10-aadb-444d-9e0b-4cbd36c3ae35|38=99999|40=2|44=999|54=1|55=PETR4|60=20260618-01:16:17.838|10=135|8=FIX.4.4|9=73|35=0|34=5|49=ORDERGENERATOR|52=20260618-01:16:47.931|56=ORDERACCUMULATOR|10=194|8=FIX.4.4|9=167|35=D|34=6|49=ORDERGENERATOR|52=20260618-01:16:56.795|56=ORDERACCUMULATOR|11=860063ee-d95e-4a31-a73e-70a4fa38cf30|38=1|40=2|44=1|54=1|55=PETR4|60=20260618-01:16:56.795|10=122|8=FIX.4.4|9=85|35=A|34=7|49=ORDERGENERATOR|52=20260618-01:17:15.258|56=ORDERACCUMULATOR|98=0|108=30|10=239|8=FIX.4.4|9=167|35=D|34=8|49=ORDERGENERATOR|52=20260618-01:17:28.140|56=ORDERACCUMULATOR|11=81d3084c-b4ab-4d81-b975-5ef16d7e61d4|38=1|40=2|44=1|54=1|55=PETR4|60=20260618-01:17:28.139|10=111|8=FIX.4.4|9=73|35=0|34=9|49=ORDERGENERATOR|52=20260618-01:17:58.869|56=ORDERACCUMULATOR|10=211|8=FIX.4.4|9=168|35=D|34=10|49=ORDERGENERATOR|52=20260618-01:18:12.502|56=ORDERACCUMULATOR|11=7db0e7ca-25f5-483f-a2b7-65ec4b26bc38|38=1|40=2|44=1|54=1|55=VALE3|60=20260618-01:18:12.502|10=208|8=FIX.4.4|9=74|35=0|34=11|49=ORDERGENERATOR|52=20260618-01:18:43.116|56=ORDERACCUMULATOR|10=233|8=FIX.4.4|9=168|35=D|34=12|49=ORDERGENERATOR|52=20260618-01:18:46.507|56=ORDERACCUMULATOR|11=2ad85b45-29ba-4b0c-9f44-32d5b7f97f12|38=1|40=2|44=1|54=1|55=VALE3|60=20260618-01:18:46.507|10=140|8=FIX.4.4|9=83|35=1|34=13|49=ORDERGENERATOR|52=20260618-01:19:12.510|56=ORDERACCUMULATOR|112=TEST|10=249|8=FIX.4.4|9=74|35=0|34=14|49=ORDERGENERATOR|52=20260618-01:19:51.661|56=ORDERACCUMULATOR|10=241|8=FIX.4.4|9=86|35=A|34=15|49=ORDERGENERATOR|52=20260618-01:27:47.247|56=ORDERACCUMULATOR|98=0|108=30|10=035|8=FIX.4.4|9=168|35=D|34=16|49=ORDERGENERATOR|52=20260618-01:27:48.599|56=ORDERACCUMULATOR|11=43140630-14e5-4038-8011-d26bccab9890|38=1|40=2|44=1|54=1|55=VALE3|60=20260618-01:27:48.599|10=165|8=FIX.4.4|9=168|35=D|34=17|49=ORDERGENERATOR|52=20260618-01:28:05.088|56=ORDERACCUMULATOR|11=91c427ef-04f8-42d0-a87c-0d79c7a034b9|38=1|40=2|44=1|54=1|55=VALE3|60=20260618-01:28:05.088|10=099|8=FIX.4.4|9=86|35=A|34=18|49=ORDERGENERATOR|52=20260618-11:01:31.302|56=ORDERACCUMULATOR|98=0|108=30|10=016|8=FIX.4.4|9=74|35=0|34=19|49=ORDERGENERATOR|52=20260618-11:02:01.490|56=ORDERACCUMULATOR|10=234|8=FIX.4.4|9=74|35=0|34=20|49=ORDERGENERATOR|52=20260618-11:02:31.679|56=ORDERACCUMULATOR|10=238|8=FIX.4.4|9=74|35=0|34=21|49=ORDERGENERATOR|52=20260618-11:03:01.926|56=ORDERACCUMULATOR|10=232|8=FIX.4.4|9=74|35=0|34=22|49=ORDERGENERATOR|52=20260618-11:03:32.094|56=ORDERACCUMULATOR|10=233|8=FIX.4.4|9=74|35=0|34=23|49=ORDERGENERATOR|52=20260618-11:04:02.346|56=ORDERACCUMULATOR|10=232|8=FIX.4.4|9=74|35=0|34=24|49=ORDERGENERATOR|52=20260618-11:04:32.569|56=ORDERACCUMULATOR|10=243|8=FIX.4.4|9=74|35=0|34=25|49=ORDERGENERATOR|52=20260618-11:05:02.797|56=ORDERACCUMULATOR|10=245|8=FIX.4.4|9=74|35=0|34=26|49=ORDERGENERATOR|52=20260618-11:05:33.004|56=ORDERACCUMULATOR|10=231|8=FIX.4.4|9=168|35=D|34=27|49=ORDERGENERATOR|52=20260618-11:06:02.803|56=ORDERACCUMULATOR|11=0bf5de42-c5b4-4b82-b2b0-e224dcff29c9|38=1|40=2|44=1|54=1|55=VALE3|60=20260618-11:06:02.801|10=254|8=FIX.4.4|9=168|35=D|34=28|49=ORDERGENERATOR|52=20260618-11:06:32.480|56=ORDERACCUMULATOR|11=2be3800e-3a78-4769-a45f-f5f75bf50b82|38=1|40=2|44=1|54=1|55=VALE3|60=20260618-11:06:32.480|10=094|8=FIX.4.4|9=74|35=0|34=29|49=ORDERGENERATOR|52=20260618-11:07:03.392|56=ORDERACCUMULATOR|10=243|8=FIX.4.4|9=74|35=0|34=30|49=ORDERGENERATOR|52=20260618-11:07:33.579|56=ORDERACCUMULATOR|10=245|8=FIX.4.4|9=74|35=0|34=31|49=ORDERGENERATOR|52=20260618-11:08:03.802|56=ORDERACCUMULATOR|10=233|8=FIX.4.4|9=74|35=0|34=32|49=ORDERGENERATOR|52=20260618-11:08:33.997|56=ORDERACCUMULATOR|10=252|8=FIX.4.4|9=74|35=0|34=33|49=ORDERGENERATOR|52=20260618-11:09:04.252|56=ORDERACCUMULATOR|10=236|8=FIX.4.4|9=74|35=0|34=34|49=ORDERGENERATOR|52=20260618-11:09:34.503|56=ORDERACCUMULATOR|10=239|8=FIX.4.4|9=74|35=0|34=35|49=ORDERGENERATOR|52=20260618-11:10:04.783|56=ORDERACCUMULATOR|10=239|