8=FIX.4.4|9=85|35=A|34=1|49=ORDERACCUMULATOR|52=20260618-01:15:20.321|56=ORDERGENERATOR|98=0|108=30|10=218|8=FIX.4.4|9=260|35=8|34=2|49=ORDERACCUMULATOR|52=20260618-01:15:49.132|56=ORDERGENERATOR|6=0|11=500a28aa-acad-4480-b229-ddc5c86c583b|14=0|17=ce2be2b7-2dc8-406a-8560-53cdcb153cda|37=1c808929-524d-4ba3-8f9c-b3d9d996e8e3|39=8|54=1|55=PETR4|58=Exposure limit exceeded|150=8|151=0|10=236|8=FIX.4.4|9=73|35=0|34=3|49=ORDERACCUMULATOR|52=20260618-01:16:20.169|56=ORDERGENERATOR|10=186|8=FIX.4.4|9=260|35=8|34=4|49=ORDERACCUMULATOR|52=20260618-01:16:46.921|56=ORDERGENERATOR|6=0|11=87b1ff10-aadb-444d-9e0b-4cbd36c3ae35|14=0|17=a9db2126-a84d-46a5-8435-ad458eab5bb9|37=ec7c671d-344d-4918-bd7b-e1ac15327a4b|39=8|54=1|55=PETR4|58=Exposure limit exceeded|150=8|151=0|10=064|8=FIX.4.4|9=85|35=A|34=5|49=ORDERACCUMULATOR|52=20260618-01:17:15.297|56=ORDERGENERATOR|98=0|108=30|10=240|8=FIX.4.4|9=233|35=8|34=6|49=ORDERACCUMULATOR|52=20260618-01:17:34.656|56=ORDERGENERATOR|6=0|11=81d3084c-b4ab-4d81-b975-5ef16d7e61d4|14=0|17=a639be46-2b8d-447c-a6e1-b24e48f5da02|37=a0f08d20-6d44-4830-9ab8-3dd3f469bc8f|39=0|54=1|55=PETR4|150=0|151=1|10=198|8=FIX.4.4|9=73|35=0|34=7|49=ORDERACCUMULATOR|52=20260618-01:18:04.911|56=ORDERGENERATOR|10=189|8=FIX.4.4|9=73|35=0|34=8|49=ORDERACCUMULATOR|52=20260618-01:18:35.027|56=ORDERGENERATOR|10=192|8=FIX.4.4|9=73|35=0|34=9|49=ORDERACCUMULATOR|52=20260618-01:19:12.518|56=ORDERGENERATOR|10=194|8=FIX.4.4|9=83|35=0|34=10|49=ORDERACCUMULATOR|52=20260618-01:19:19.068|56=ORDERGENERATOR|112=TEST|10=004|8=FIX.4.4|9=74|35=0|34=11|49=ORDERACCUMULATOR|52=20260618-01:19:51.668|56=ORDERGENERATOR|10=245|8=FIX.4.4|9=86|35=A|34=12|49=ORDERACCUMULATOR|52=20260618-01:27:47.249|56=ORDERGENERATOR|98=0|108=30|10=034|8=FIX.4.4|9=74|35=0|34=13|49=ORDERACCUMULATOR|52=20260618-01:28:18.214|56=ORDERGENERATOR|10=237|8=FIX.4.4|9=86|35=A|34=14|49=ORDERACCUMULATOR|52=20260618-11:01:31.325|56=ORDERGENERATOR|98=0|108=30|10=017|8=FIX.4.4|9=74|35=0|34=15|49=ORDERACCUMULATOR|52=20260618-11:02:01.490|56=ORDERGENERATOR|10=230|8=FIX.4.4|9=74|35=0|34=16|49=ORDERACCUMULATOR|52=20260618-11:02:31.679|56=ORDERGENERATOR|10=243|8=FIX.4.4|9=74|35=0|34=17|49=ORDERACCUMULATOR|52=20260618-11:03:01.927|56=ORDERGENERATOR|10=238|8=FIX.4.4|9=74|35=0|34=18|49=ORDERACCUMULATOR|52=20260618-11:03:32.094|56=ORDERGENERATOR|10=238|8=FIX.4.4|9=74|35=0|34=19|49=ORDERACCUMULATOR|52=20260618-11:04:02.346|56=ORDERGENERATOR|10=237|8=FIX.4.4|9=74|35=0|34=20|49=ORDERACCUMULATOR|52=20260618-11:04:32.569|56=ORDERGENERATOR|10=239|8=FIX.4.4|9=74|35=0|34=21|49=ORDERACCUMULATOR|52=20260618-11:05:02.797|56=ORDERGENERATOR|10=241|8=FIX.4.4|9=74|35=0|34=22|49=ORDERACCUMULATOR|52=20260618-11:05:33.004|56=ORDERGENERATOR|10=227|8=FIX.4.4|9=74|35=0|34=23|49=ORDERACCUMULATOR|52=20260618-11:06:06.472|56=ORDERGENERATOR|10=238|8=FIX.4.4|9=234|35=8|34=24|49=ORDERACCUMULATOR|52=20260618-11:06:13.247|56=ORDERGENERATOR|6=0|11=0bf5de42-c5b4-4b82-b2b0-e224dcff29c9|14=0|17=78af0da4-df38-46e7-9bcb-558b8f0f1fab|37=72565e90-0a68-4cf5-8d98-cb2998b93226|39=0|54=1|55=VALE3|150=0|151=1|10=084|8=FIX.4.4|9=234|35=8|34=25|49=ORDERACCUMULATOR|52=20260618-11:06:37.217|56=ORDERGENERATOR|6=0|11=2be3800e-3a78-4769-a45f-f5f75bf50b82|14=0|17=33a95e62-166f-4771-9e67-fbb2f067e5c4|37=374a1ca1-548a-453a-9a24-f4bf5af4cc7d|39=0|54=1|55=VALE3|150=0|151=1|10=141|8=FIX.4.4|9=74|35=0|34=26|49=ORDERACCUMULATOR|52=20260618-11:07:07.415|56=ORDERGENERATOR|10=240|8=FIX.4.4|9=74|35=0|34=27|49=ORDERACCUMULATOR|52=20260618-11:07:37.618|56=ORDERGENERATOR|10=249|8=FIX.4.4|9=74|35=0|34=28|49=ORDERACCUMULATOR|52=20260618-11:08:07.818|56=ORDERGENERATOR|10=250|8=FIX.4.4|9=74|35=0|34=29|49=ORDERACCUMULATOR|52=20260618-11:08:38.039|56=ORDERGENERATOR|10=250|8=FIX.4.4|9=74|35=0|34=30|49=ORDERACCUMULATOR|52=20260618-11:09:08.285|56=ORDERGENERATOR|10=243|8=FIX.4.4|9=74|35=0|34=31|49=ORDERACCUMULATOR|52=20260618-11:09:38.544|56=ORDERGENERATOR|10=245|8=FIX.4.4|9=74|35=0|34=32|49=ORDERACCUMULATOR|52=20260618-11:10:08.826|56=ORDERGENERATOR|10=238|8=FIX.4.4|9=86|35=A|34=33|49=ORDERACCUMULATOR|52=20260618-12:35:32.239|56=ORDERGENERATOR|98=0|108=30|10=031|8=FIX.4.4|9=74|35=0|34=34|49=ORDERACCUMULATOR|52=20260618-12:36:02.508|56=ORDERGENERATOR|10=240|8=FIX.4.4|9=74|35=0|34=35|49=ORDERACCUMULATOR|52=20260618-12:36:32.818|56=ORDERGENERATOR|10=248|8=FIX.4.4|9=74|35=0|34=36|49=ORDERACCUMULATOR|52=20260618-12:37:03.102|56=ORDERGENERATOR|10=234|8=FIX.4.4|9=74|35=0|34=37|49=ORDERACCUMULATOR|52=20260618-12:37:33.358|56=ORDERGENERATOR|10=251|8=FIX.4.4|9=74|35=0|34=38|49=ORDERACCUMULATOR|52=20260618-12:38:03.633|56=ORDERGENERATOR|10=246|8=FIX.4.4|9=236|35=8|34=39|49=ORDERACCUMULATOR|52=20260618-12:38:31.389|56=ORDERGENERATOR|6=0|11=90f8ead5-33ea-4973-8e4c-9daba60592a1|14=0|17=026de6e1-0629-4ba6-ae4c-30728828d688|37=84950b7b-17a0-44db-8828-84124a226fe7|39=0|54=1|55=PETR4|150=0|151=100|10=032|8=FIX.4.4|9=74|35=0|34=40|49=ORDERACCUMULATOR|52=20260618-12:39:01.689|56=ORDERGENERATOR|10=249|8=FIX.4.4|9=74|35=0|34=41|49=ORDERACCUMULATOR|52=20260618-12:39:31.964|56=ORDERGENERATOR|10=249|8=FIX.4.4|9=74|35=0|34=42|49=ORDERACCUMULATOR|52=20260618-12:40:02.235|56=ORDERGENERATOR|10=231|8=FIX.4.4|9=74|35=0|34=43|49=ORDERACCUMULATOR|52=20260618-12:40:32.455|56=ORDERGENERATOR|10=239|8=FIX.4.4|9=74|35=0|34=44|49=ORDERACCUMULATOR|52=20260618-12:41:02.732|56=ORDERGENERATOR|10=236|8=FIX.4.4|9=74|35=0|34=45|49=ORDERACCUMULATOR|52=20260618-12:41:33.023|56=ORDERGENERATOR|10=234|8=FIX.4.4|9=74|35=0|34=46|49=ORDERACCUMULATOR|52=20260618-12:42:03.275|56=ORDERGENERATOR|10=242|8=FIX.4.4|9=74|35=0|34=47|49=ORDERACCUMULATOR|52=20260618-12:42:33.477|56=ORDERGENERATOR|10=250|8=FIX.4.4|9=74|35=0|34=48|49=ORDERACCUMULATOR|52=20260618-12:43:03.732|56=ORDERGENERATOR|10=243|8=FIX.4.4|9=74|35=0|34=49|49=ORDERACCUMULATOR|52=20260618-12:43:33.932|56=ORDERGENERATOR|10=249|8=FIX.4.4|9=74|35=0|34=50|49=ORDERACCUMULATOR|52=20260618-12:44:04.157|56=ORDERGENERATOR|10=239|8=FIX.4.4|9=74|35=0|34=51|49=ORDERACCUMULATOR|52=20260618-12:44:34.350|56=ORDERGENERATOR|10=238|8=FIX.4.4|9=86|35=A|34=52|49=ORDERACCUMULATOR|52=20260618-12:45:04.750|56=ORDERGENERATOR|98=0|108=30|10=030|8=FIX.4.4|9=236|35=8|34=53|49=ORDERACCUMULATOR|52=20260618-12:45:30.283|56=ORDERGENERATOR|6=0|11=953fbb26-032a-4a9f-92f9-25c2bc8902a4|14=0|17=5001994d-296e-4b9f-9b04-39864e753633|37=2185ac63-85c8-427d-9960-629b2f656f90|39=0|54=1|55=PETR4|150=0|151=100|10=015|8=FIX.4.4|9=236|35=8|34=54|49=ORDERACCUMULATOR|52=20260618-12:45:47.901|56=ORDERGENERATOR|6=0|11=bd9797ca-bd52-45c0-a032-508fc471bb3a|14=0|17=c1eb1992-a297-44f9-8c1d-62cad5e00aae|37=62bd1290-3957-4488-ac3f-baaabe511dbe|39=0|54=1|55=PETR4|150=0|151=100|10=247|8=FIX.4.4|9=74|35=0|34=55|49=ORDERACCUMULATOR|52=20260618-12:46:18.771|56=ORDERGENERATOR|10=253|8=FIX.4.4|9=74|35=0|34=56|49=ORDERACCUMULATOR|52=20260618-12:46:49.028|56=ORDERGENERATOR|10=253|8=FIX.4.4|9=74|35=0|34=57|49=ORDERACCUMULATOR|52=20260618-12:47:19.300|56=ORDERGENERATOR|10=245|8=FIX.4.4|9=74|35=0|34=58|49=ORDERACCUMULATOR|52=20260618-12:47:49.565|56=ORDERGENERATOR|10=006|8=FIX.4.4|9=74|35=0|34=59|49=ORDERACCUMULATOR|52=20260618-12:48:19.820|56=ORDERGENERATOR|10=255|8=FIX.4.4|9=74|35=0|34=60|49=ORDERACCUMULATOR|52=20260618-12:48:50.056|56=ORDERGENERATOR|10=243|8=FIX.4.4|9=74|35=0|34=61|49=ORDERACCUMULATOR|52=20260618-12:49:20.305|56=ORDERGENERATOR|10=239|8=FIX.4.4|9=74|35=0|34=62|49=ORDERACCUMULATOR|52=20260618-12:49:50.503|56=ORDERGENERATOR|10=243|8=FIX.4.4|9=86|35=A|34=63|49=ORDERACCUMULATOR|52=20260618-13:01:57.216|56=ORDERGENERATOR|98=0|108=30|10=030|8=FIX.4.4|9=74|35=0|34=64|49=ORDERACCUMULATOR|52=20260618-13:02:27.281|56=ORDERGENERATOR|10=242|8=FIX.4.4|9=234|35=8|34=65|49=ORDERACCUMULATOR|52=20260618-13:02:27.807|56=ORDERGENERATOR|6=0|11=b5c677cb-54e4-4028-8a42-74cf27ac7dd4|14=0|17=93453eab-83ac-441d-ab85-c1b592c8c2bf|37=232ab857-86ad-4340-a5f7-64d934b6d28b|39=0|54=1|55=PETR4|150=0|151=1|10=198|8=FIX.4.4|9=74|35=0|34=66|49=ORDERACCUMULATOR|52=20260618-13:02:58.264|56=ORDERGENERATOR|10=249|8=FIX.4.4|9=234|35=8|34=67|49=ORDERACCUMULATOR|52=20260618-13:02:58.264|56=ORDERGENERATOR|6=0|11=cb62ac03-6b7b-49f8-b85b-ba3e56df1422|14=0|17=d2c821a5-fb4f-4e73-b890-5384bd1c3301|37=9fdfaf6d-ebc1-4b06-bb50-672027d6e3b4|39=0|54=1|55=PETR4|150=0|151=1|10=111|8=FIX.4.4|9=74|35=0|34=68|49=ORDERACCUMULATOR|52=20260618-13:03:28.540|56=ORDERGENERATOR|10=246|8=FIX.4.4|9=74|35=0|34=69|49=ORDERACCUMULATOR|52=20260618-13:03:58.763|56=ORDERGENERATOR|10=001|8=FIX.4.4|9=74|35=0|34=70|49=ORDERACCUMULATOR|52=20260618-13:04:29.054|56=ORDERGENERATOR|10=241|8=FIX.4.4|9=74|35=0|34=71|49=ORDERACCUMULATOR|52=20260618-13:05:34.585|56=ORDERGENERATOR|10=248|8=FIX.4.4|9=83|35=0|34=72|49=ORDERACCUMULATOR|52=20260618-13:05:34.587|56=ORDERGENERATOR|112=TEST|10=013|8=FIX.4.4|9=234|35=8|34=73|49=ORDERACCUMULATOR|52=20260618-13:05:35.799|56=ORDERGENERATOR|6=0|11=567df069-7ca7-4474-ad84-187756ab71d2|14=0|17=4ccfe218-36aa-45cf-90b9-5e9b7a85696e|37=d9d34bf1-277f-438a-82e1-530f3e353277|39=0|54=1|55=PETR4|150=0|151=1|10=013|8=FIX.4.4|9=74|35=0|34=74|49=ORDERACCUMULATOR|52=20260618-13:06:06.281|56=ORDERGENERATOR|10=244|8=FIX.4.4|9=234|35=8|34=75|49=ORDERACCUMULATOR|52=20260618-13:06:12.008|56=ORDERGENERATOR|6=0|11=38fcf948-c017-45df-bfad-2ac40176748a|14=0|17=b418419c-97c1-4ce8-a1a4-185bdf01bf9e|37=c170c6ee-088d-4d58-82a8-75f7883cd17a|39=0|54=1|55=PETR4|150=0|151=1|10=005|8=FIX.4.4|9=74|35=0|34=76|49=ORDERACCUMULATOR|52=20260618-13:06:42.211|56=ORDERGENERATOR|10=239|8=FIX.4.4|9=74|35=0|34=77|49=ORDERACCUMULATOR|52=20260618-13:07:12.412|56=ORDERGENERATOR|10=241|8=FIX.4.4|9=74|35=0|34=78|49=ORDERACCUMULATOR|52=20260618-13:07:42.640|56=ORDERGENERATOR|10=248|8=FIX.4.4|9=74|35=0|34=79|49=ORDERACCUMULATOR|52=20260618-13:08:12.929|56=ORDERGENERATOR|10=001|8=FIX.4.4|9=74|35=0|34=80|49=ORDERACCUMULATOR|52=20260618-13:08:43.197|56=ORDERGENERATOR|10=250|8=FIX.4.4|9=74|35=0|34=81|49=ORDERACCUMULATOR|52=20260618-13:09:13.471|56=ORDERGENERATOR|10=244|8=FIX.4.4|9=74|35=0|34=82|49=ORDERACCUMULATOR|52=20260618-13:09:43.721|56=ORDERGENERATOR|10=246|8=FIX.4.4|9=234|35=8|34=83|49=ORDERACCUMULATOR|52=20260618-13:10:01.407|56=ORDERGENERATOR|6=0|11=61fd49e4-094f-491b-98c5-6824c8eacd61|14=0|17=0db4606e-3e74-4a23-9ae3-72f495210628|37=689250d2-9168-4eec-a36b-88bfa9ca42d7|39=0|54=1|55=PETR4|150=0|151=1|10=232|8=FIX.4.4|9=74|35=0|34=84|49=ORDERACCUMULATOR|52=20260618-13:10:31.737|56=ORDERGENERATOR|10=244|8=FIX.4.4|9=234|35=8|34=85|49=ORDERACCUMULATOR|52=20260618-13:10:46.461|56=ORDERGENERATOR|6=0|11=6a223c3d-651f-4884-badc-e149fd3afacd|14=0|17=8f0ef68b-1b76-4663-a39c-1b895e7416ec|37=3001b70e-fd09-40c3-85cf-4213824fc089|39=0|54=1|55=PETR4|150=0|151=1|10=197|8=FIX.4.4|9=74|35=0|34=86|49=ORDERACCUMULATOR|52=20260618-13:11:16.680|56=ORDERGENERATOR|10=247|8=FIX.4.4|9=234|35=8|34=87|49=ORDERACCUMULATOR|52=20260618-13:11:35.755|56=ORDERGENERATOR|6=0|11=04954b22-50d0-45f1-82ff-1dc65bd3260a|14=0|17=f5380714-7549-4126-85c3-b00d0a8c0b78|37=f5fa7449-71f5-4b49-bee6-0996cd954c92|39=0|54=1|55=PETR4|150=0|151=1|10=085|8=FIX.4.4|9=74|35=0|34=88|49=ORDERACCUMULATOR|52=20260618-13:12:06.054|56=ORDERGENERATOR|10=244|8=FIX.4.4|9=74|35=0|34=89|49=ORDERACCUMULATOR|52=20260618-13:12:36.366|56=ORDERGENERATOR|10=254|8=FIX.4.4|9=234|35=8|34=90|49=ORDERACCUMULATOR|52=20260618-13:12:50.282|56=ORDERGENERATOR|6=0|11=be3a391b-cfe5-4ab8-abc4-e65cda2fce8b|14=0|17=2702d685-e8bd-4976-8c68-5eed00cb5ead|37=45b569d6-be57-4f89-9613-5104c71c8b94|39=0|54=1|55=PETR4|150=0|151=1|10=201|8=FIX.4.4|9=74|35=0|34=91|49=ORDERACCUMULATOR|52=20260618-13:13:20.527|56=ORDERGENERATOR|10=240|8=FIX.4.4|9=74|35=0|34=92|49=ORDERACCUMULATOR|52=20260618-13:13:50.802|56=ORDERGENERATOR|10=240|8=FIX.4.4|9=74|35=0|34=93|49=ORDERACCUMULATOR|52=20260618-13:14:21.065|56=ORDERGENERATOR|10=241|8=FIX.4.4|9=74|35=0|34=94|49=ORDERACCUMULATOR|52=20260618-13:14:51.295|56=ORDERGENERATOR|10=250|8=FIX.4.4|9=74|35=0|34=95|49=ORDERACCUMULATOR|52=20260618-13:15:21.505|56=ORDERGENERATOR|10=243|8=FIX.4.4|9=74|35=0|34=96|49=ORDERACCUMULATOR|52=20260618-13:15:51.756|56=ORDERGENERATOR|10=255|8=FIX.4.4|9=74|35=0|34=97|49=ORDERACCUMULATOR|52=20260618-13:16:22.013|56=ORDERGENERATOR|10=241|8=FIX.4.4|9=234|35=8|34=98|49=ORDERACCUMULATOR|52=20260618-13:17:56.803|56=ORDERGENERATOR|6=0|11=109824ec-ab7d-4d50-abe3-9037ac4db57b|14=0|17=f448f4d9-38cd-4f84-ae4c-73bcf0d912ec|37=52b86c64-cf7e-4389-bcab-26f559b5f040|39=0|54=1|55=PETR4|150=0|151=1|10=202|8=FIX.4.4|9=86|35=A|34=99|49=ORDERACCUMULATOR|52=20260618-13:17:58.822|56=ORDERGENERATOR|98=0|108=30|10=050|8=FIX.4.4|9=75|35=0|34=100|49=ORDERACCUMULATOR|52=20260618-13:18:29.774|56=ORDERGENERATOR|10=042|8=FIX.4.4|9=75|35=0|34=101|49=ORDERACCUMULATOR|52=20260618-13:19:00.014|56=ORDERGENERATOR|10=020|8=FIX.4.4|9=75|35=0|34=102|49=ORDERACCUMULATOR|52=20260618-13:19:30.165|56=ORDERGENERATOR|10=031|8=FIX.4.4|9=87|35=A|34=103|49=ORDERACCUMULATOR|52=20260618-13:26:27.380|56=ORDERGENERATOR|98=0|108=30|10=080|8=FIX.4.4|9=757|35=8|34=104|49=ORDERACCUMULATOR|52=20260618-13:26:34.430|56=ORDERGENERATOR|6=0|11=a2253af7-7503-4571-abfe-318dd2cb9e34|14=0|17=70a7d359-d9c8-4fb0-9f81-954519ac7aa6|37=a95b5ffd-4cf8-4338-839c-43b2c4bec2dc|39=8|54=1|55=PETR4|58=FluentValidation.ValidationException: Validation failed: 
 -- Quantity: Invalid order quantity. Must be a positive number. Severity: Error
   at OrderAccumulator.Application.Behaviors.ValidationBehavior`2.Handle(TRequest request, RequestHandlerDelegate`1 next, CancellationToken cancellationToken) in C:\Users\Kabum\source\repos\OrderBase\OrderAccumulator.Application\Behaviors\ValidationBehavior.cs:line 29
   at OrderAccumulator.Infrastructure.Fix.FixApplication.<>c__DisplayClass4_0.<<OnMessage>b__0>d.MoveNext()|150=8|151=0|10=053|8=FIX.4.4|9=87|35=A|34=105|49=ORDERACCUMULATOR|52=20260618-13:27:02.787|56=ORDERGENERATOR|98=0|108=30|10=087|8=FIX.4.4|9=75|35=0|34=106|49=ORDERACCUMULATOR|52=20260618-13:27:41.127|56=ORDERGENERATOR|10=034|8=FIX.4.4|9=84|35=0|34=107|49=ORDERACCUMULATOR|52=20260618-13:27:41.128|56=ORDERGENERATOR|112=TEST|10=054|8=FIX.4.4|9=860|35=8|34=108|49=ORDERACCUMULATOR|52=20260618-13:27:48.454|56=ORDERGENERATOR|6=0|11=f86da094-35cf-4a45-bc58-368c0bac0faf|14=0|17=d8fa9229-ee17-4f3b-bc53-1c46f55a5a14|37=3ceee257-b85c-4b6b-9851-86dcdfd1e48a|39=8|54=1|55=PETR4|58=FluentValidation.ValidationException: Validation failed: 
 -- Quantity: Invalid order quantity. Must be a positive number. Severity: Error
   at OrderAccumulator.Application.Behaviors.ValidationBehavior`2.Handle(TRequest request, RequestHandlerDelegate`1 next, CancellationToken cancellationToken) in C:\Users\Kabum\source\repos\OrderBase\OrderAccumulator.Application\Behaviors\ValidationBehavior.cs:line 29
   at OrderAccumulator.Infrastructure.Fix.FixApplication.<>c__DisplayClass4_0.<<OnMessage>b__0>d.MoveNext() in C:\Users\Kabum\source\repos\OrderBase\OrderAccumulator.Infrastructure\Fix\FixApplication.cs:line 45|150=8|151=0|10=140|8=FIX.4.4|9=75|35=0|34=109|49=ORDERACCUMULATOR|52=20260618-13:28:19.192|56=ORDERGENERATOR|10=045|8=FIX.4.4|9=75|35=0|34=110|49=ORDERACCUMULATOR|52=20260618-13:28:49.392|56=ORDERGENERATOR|10=042|8=FIX.4.4|9=75|35=0|34=111|49=ORDERACCUMULATOR|52=20260618-13:29:19.572|56=ORDERGENERATOR|10=041|8=FIX.4.4|9=75|35=0|34=112|49=ORDERACCUMULATOR|52=20260618-13:29:49.799|56=ORDERGENERATOR|10=056|8=FIX.4.4|9=75|35=0|34=113|49=ORDERACCUMULATOR|52=20260618-13:30:20.028|56=ORDERGENERATOR|10=023|8=FIX.4.4|9=75|35=0|34=114|49=ORDERACCUMULATOR|52=20260618-13:30:50.253|56=ORDERGENERATOR|10=027|8=FIX.4.4|9=75|35=0|34=115|49=ORDERACCUMULATOR|52=20260618-13:31:20.530|56=ORDERGENERATOR|10=024|8=FIX.4.4|9=860|35=8|34=116|49=ORDERACCUMULATOR|52=20260618-13:31:26.779|56=ORDERGENERATOR|6=0|11=0156879d-b68d-4ed1-b2cb-1bc708b95a5c|14=0|17=d472fb2e-2048-4e78-8d75-e9b586077380|37=edd6caa5-b7bc-4746-98df-a91822a93675|39=8|54=1|55=PETR4|58=FluentValidation.ValidationException: Validation failed: 
 -- Quantity: Invalid order quantity. Must be a positive number. Severity: Error
   at OrderAccumulator.Application.Behaviors.ValidationBehavior`2.Handle(TRequest request, RequestHandlerDelegate`1 next, CancellationToken cancellationToken) in C:\Users\Kabum\source\repos\OrderBase\OrderAccumulator.Application\Behaviors\ValidationBehavior.cs:line 29
   at OrderAccumulator.Infrastructure.Fix.FixApplication.<>c__DisplayClass4_0.<<OnMessage>b__0>d.MoveNext() in C:\Users\Kabum\source\repos\OrderBase\OrderAccumulator.Infrastructure\Fix\FixApplication.cs:line 45|150=8|151=0|10=249|8=FIX.4.4|9=84|35=1|34=117|49=ORDERACCUMULATOR|52=20260618-13:31:59.862|56=ORDERGENERATOR|112=TEST|10=065|8=FIX.4.4|9=84|35=0|34=118|49=ORDERACCUMULATOR|52=20260618-13:32:23.970|56=ORDERGENERATOR|112=TEST|10=057|8=FIX.4.4|9=860|35=8|34=119|49=ORDERACCUMULATOR|52=20260618-13:32:40.050|56=ORDERGENERATOR|6=0|11=1f8e4742-1dab-4cad-a58e-76feecb317b9|14=0|17=9fa60be0-9629-4887-8bbd-2bca384954de|37=382607ba-1dc0-4da4-aa7a-62d925759862|39=8|54=1|55=PETR4|58=FluentValidation.ValidationException: Validation failed: 
 -- Quantity: Invalid order quantity. Must be a positive number. Severity: Error
   at OrderAccumulator.Application.Behaviors.ValidationBehavior`2.Handle(TRequest request, RequestHandlerDelegate`1 next, CancellationToken cancellationToken) in C:\Users\Kabum\source\repos\OrderBase\OrderAccumulator.Application\Behaviors\ValidationBehavior.cs:line 29
   at OrderAccumulator.Infrastructure.Fix.FixApplication.<>c__DisplayClass4_0.<<OnMessage>b__0>d.MoveNext() in C:\Users\Kabum\source\repos\OrderBase\OrderAccumulator.Infrastructure\Fix\FixApplication.cs:line 45|150=8|151=0|10=144|8=FIX.4.4|9=75|35=0|34=120|49=ORDERACCUMULATOR|52=20260618-13:33:10.466|56=ORDERGENERATOR|10=029|8=FIX.4.4|9=87|35=A|34=121|49=ORDERACCUMULATOR|52=20260618-13:33:44.192|56=ORDERGENERATOR|98=0|108=30|10=078|8=FIX.4.4|9=340|35=8|34=122|49=ORDERACCUMULATOR|52=20260618-13:33:47.854|56=ORDERGENERATOR|6=0|11=abf5c870-919c-47f7-9c50-d7d129d380ff|14=0|17=667e3965-c328-4613-87f6-d326da45ec53|37=cafd2685-2c5e-44b3-a1b0-fdec30067199|39=8|54=1|55=PETR4|58=Validation failed: 
 -- Quantity: Invalid order quantity. Must be a positive number. Severity: Error|150=8|151=0|10=219|8=FIX.4.4|9=75|35=0|34=123|49=ORDERACCUMULATOR|52=20260618-13:34:18.448|56=ORDERGENERATOR|10=041|8=FIX.4.4|9=75|35=0|34=124|49=ORDERACCUMULATOR|52=20260618-13:34:48.674|56=ORDERGENERATOR|10=046|8=FIX.4.4|9=75|35=0|34=125|49=ORDERACCUMULATOR|52=20260618-13:35:18.932|56=ORDERGENERATOR|10=042|8=FIX.4.4|9=75|35=0|34=126|49=ORDERACCUMULATOR|52=20260618-13:35:49.150|56=ORDERGENERATOR|10=039|8=FIX.4.4|9=75|35=0|34=127|49=ORDERACCUMULATOR|52=20260618-13:36:19.400|56=ORDERGENERATOR|10=036|8=FIX.4.4|9=75|35=0|34=128|49=ORDERACCUMULATOR|52=20260618-13:36:49.591|56=ORDERGENERATOR|10=051|8=FIX.4.4|9=87|35=A|34=129|49=ORDERACCUMULATOR|52=20260618-15:01:21.402|56=ORDERGENERATOR|98=0|108=30|10=072|8=FIX.4.4|9=454|35=8|34=130|49=ORDERACCUMULATOR|52=20260618-15:01:33.964|56=ORDERGENERATOR|6=0|11=875dcb1b-0e70-4e5e-b6ad-a8a3f4fd2ada|14=0|17=f10f7aed-a12a-4933-8e0d-8fec9550e8ac|37=fcfcb2cb-0581-4d48-bad8-aff1eb931aed|39=8|54=1|55=PETR4|58=Validation failed: 
 -- Quantity: Invalid order quantity. Must be a positive number or less than 100000. Severity: Error
 -- Price: Invalid order price. Must be a positive number or less than 1000. Severity: Error|150=8|151=0|10=122|8=FIX.4.4|9=75|35=0|34=131|49=ORDERACCUMULATOR|52=20260618-15:02:04.963|56=ORDERGENERATOR|10=034|