8=FIX.4.4|9=85|35=A|34=1|49=ORDERACCUMULATOR|52=20260618-01:15:20.321|56=ORDERGENERATOR|98=0|108=30|10=218|8=FIX.4.4|9=260|35=8|34=2|49=ORDERACCUMULATOR|52=20260618-01:15:49.132|56=ORDERGENERATOR|6=0|11=500a28aa-acad-4480-b229-ddc5c86c583b|14=0|17=ce2be2b7-2dc8-406a-8560-53cdcb153cda|37=1c808929-524d-4ba3-8f9c-b3d9d996e8e3|39=8|54=1|55=PETR4|58=Exposure limit exceeded|150=8|151=0|10=236|8=FIX.4.4|9=73|35=0|34=3|49=ORDERACCUMULATOR|52=20260618-01:16:20.169|56=ORDERGENERATOR|10=186|8=FIX.4.4|9=260|35=8|34=4|49=ORDERACCUMULATOR|52=20260618-01:16:46.921|56=ORDERGENERATOR|6=0|11=87b1ff10-aadb-444d-9e0b-4cbd36c3ae35|14=0|17=a9db2126-a84d-46a5-8435-ad458eab5bb9|37=ec7c671d-344d-4918-bd7b-e1ac15327a4b|39=8|54=1|55=PETR4|58=Exposure limit exceeded|150=8|151=0|10=064|8=FIX.4.4|9=85|35=A|34=5|49=ORDERACCUMULATOR|52=20260618-01:17:15.297|56=ORDERGENERATOR|98=0|108=30|10=240|8=FIX.4.4|9=233|35=8|34=6|49=ORDERACCUMULATOR|52=20260618-01:17:34.656|56=ORDERGENERATOR|6=0|11=81d3084c-b4ab-4d81-b975-5ef16d7e61d4|14=0|17=a639be46-2b8d-447c-a6e1-b24e48f5da02|37=a0f08d20-6d44-4830-9ab8-3dd3f469bc8f|39=0|54=1|55=PETR4|150=0|151=1|10=198|8=FIX.4.4|9=73|35=0|34=7|49=ORDERACCUMULATOR|52=20260618-01:18:04.911|56=ORDERGENERATOR|10=189|8=FIX.4.4|9=73|35=0|34=8|49=ORDERACCUMULATOR|52=20260618-01:18:35.027|56=ORDERGENERATOR|10=192|8=FIX.4.4|9=73|35=0|34=9|49=ORDERACCUMULATOR|52=20260618-01:19:12.518|56=ORDERGENERATOR|10=194|8=FIX.4.4|9=83|35=0|34=10|49=ORDERACCUMULATOR|52=20260618-01:19:19.068|56=ORDERGENERATOR|112=TEST|10=004|8=FIX.4.4|9=74|35=0|34=11|49=ORDERACCUMULATOR|52=20260618-01:19:51.668|56=ORDERGENERATOR|10=245|8=FIX.4.4|9=86|35=A|34=12|49=ORDERACCUMULATOR|52=20260618-01:27:47.249|56=ORDERGENERATOR|98=0|108=30|10=034|8=FIX.4.4|9=74|35=0|34=13|49=ORDERACCUMULATOR|52=20260618-01:28:18.214|56=ORDERGENERATOR|10=237|8=FIX.4.4|9=86|35=A|34=14|49=ORDERACCUMULATOR|52=20260618-11:01:31.325|56=ORDERGENERATOR|98=0|108=30|10=017|8=FIX.4.4|9=74|35=0|34=15|49=ORDERACCUMULATOR|52=20260618-11:02:01.490|56=ORDERGENERATOR|10=230|8=FIX.4.4|9=74|35=0|34=16|49=ORDERACCUMULATOR|52=20260618-11:02:31.679|56=ORDERGENERATOR|10=243|8=FIX.4.4|9=74|35=0|34=17|49=ORDERACCUMULATOR|52=20260618-11:03:01.927|56=ORDERGENERATOR|10=238|8=FIX.4.4|9=74|35=0|34=18|49=ORDERACCUMULATOR|52=20260618-11:03:32.094|56=ORDERGENERATOR|10=238|8=FIX.4.4|9=74|35=0|34=19|49=ORDERACCUMULATOR|52=20260618-11:04:02.346|56=ORDERGENERATOR|10=237|8=FIX.4.4|9=74|35=0|34=20|49=ORDERACCUMULATOR|52=20260618-11:04:32.569|56=ORDERGENERATOR|10=239|8=FIX.4.4|9=74|35=0|34=21|49=ORDERACCUMULATOR|52=20260618-11:05:02.797|56=ORDERGENERATOR|10=241|8=FIX.4.4|9=74|35=0|34=22|49=ORDERACCUMULATOR|52=20260618-11:05:33.004|56=ORDERGENERATOR|10=227|8=FIX.4.4|9=74|35=0|34=23|49=ORDERACCUMULATOR|52=20260618-11:06:06.472|56=ORDERGENERATOR|10=238|8=FIX.4.4|9=234|35=8|34=24|49=ORDERACCUMULATOR|52=20260618-11:06:13.247|56=ORDERGENERATOR|6=0|11=0bf5de42-c5b4-4b82-b2b0-e224dcff29c9|14=0|17=78af0da4-df38-46e7-9bcb-558b8f0f1fab|37=72565e90-0a68-4cf5-8d98-cb2998b93226|39=0|54=1|55=VALE3|150=0|151=1|10=084|8=FIX.4.4|9=234|35=8|34=25|49=ORDERACCUMULATOR|52=20260618-11:06:37.217|56=ORDERGENERATOR|6=0|11=2be3800e-3a78-4769-a45f-f5f75bf50b82|14=0|17=33a95e62-166f-4771-9e67-fbb2f067e5c4|37=374a1ca1-548a-453a-9a24-f4bf5af4cc7d|39=0|54=1|55=VALE3|150=0|151=1|10=141|8=FIX.4.4|9=74|35=0|34=26|49=ORDERACCUMULATOR|52=20260618-11:07:07.415|56=ORDERGENERATOR|10=240|8=FIX.4.4|9=74|35=0|34=27|49=ORDERACCUMULATOR|52=20260618-11:07:37.618|56=ORDERGENERATOR|10=249|8=FIX.4.4|9=74|35=0|34=28|49=ORDERACCUMULATOR|52=20260618-11:08:07.818|56=ORDERGENERATOR|10=250|8=FIX.4.4|9=74|35=0|34=29|49=ORDERACCUMULATOR|52=20260618-11:08:38.039|56=ORDERGENERATOR|10=250|8=FIX.4.4|9=74|35=0|34=30|49=ORDERACCUMULATOR|52=20260618-11:09:08.285|56=ORDERGENERATOR|10=243|8=FIX.4.4|9=74|35=0|34=31|49=ORDERACCUMULATOR|52=20260618-11:09:38.544|56=ORDERGENERATOR|10=245|8=FIX.4.4|9=74|35=0|34=32|49=ORDERACCUMULATOR|52=20260618-11:10:08.826|56=ORDERGENERATOR|10=238|